{
  "_format": "hh-sol-artifact-1",
  "contractName": "AdBidding",
  "sourceName": "contracts/AdBidding.sol",
  "abi": [
    {
      "inputs": [],
      "stateMutability": "nonpayable",
      "type": "constructor"
    },
    {
      "inputs": [
        {
          "internalType": "address",
          "name": "owner",
          "type": "address"
        }
      ],
      "name": "OwnableInvalidOwner",
      "type": "error"
    },
    {
      "inputs": [
        {
          "internalType": "address",
          "name": "account",
          "type": "address"
        }
      ],
      "name": "OwnableUnauthorizedAccount",
      "type": "error"
    },
    {
      "inputs": [],
      "name": "ReentrancyGuardReentrantCall",
      "type": "error"
    },
    {
      "anonymous": false,
      "inputs": [
        {
          "indexed": true,
          "internalType": "string",
          "name": "adId",
          "type": "string"
        },
        {
          "indexed": true,
          "internalType": "address",
          "name": "auctioneer",
          "type": "address"
        },
        {
          "indexed": false,
          "internalType": "uint256",
          "name": "minBid",
          "type": "uint256"
        },
        {
          "indexed": false,
          "internalType": "uint256",
          "name": "endTime",
          "type": "uint256"
        }
      ],
      "name": "AuctionCreated",
      "type": "event"
    },
    {
      "anonymous": false,
      "inputs": [
        {
          "indexed": true,
          "internalType": "string",
          "name": "adId",
          "type": "string"
        },
        {
          "indexed": true,
          "internalType": "address",
          "name": "winner",
          "type": "address"
        },
        {
          "indexed": false,
          "internalType": "uint256",
          "name": "amount",
          "type": "uint256"
        }
      ],
      "name": "AuctionEnded",
      "type": "event"
    },
    {
      "anonymous": false,
      "inputs": [
        {
          "indexed": true,
          "internalType": "string",
          "name": "adId",
          "type": "string"
        },
        {
          "indexed": true,
          "internalType": "address",
          "name": "bidder",
          "type": "address"
        },
        {
          "indexed": false,
          "internalType": "uint256",
          "name": "amount",
          "type": "uint256"
        }
      ],
      "name": "BidPlaced",
      "type": "event"
    },
    {
      "anonymous": false,
      "inputs": [
        {
          "indexed": true,
          "internalType": "address",
          "name": "previousOwner",
          "type": "address"
        },
        {
          "indexed": true,
          "internalType": "address",
          "name": "newOwner",
          "type": "address"
        }
      ],
      "name": "OwnershipTransferred",
      "type": "event"
    },
    {
      "inputs": [
        {
          "internalType": "string",
          "name": "",
          "type": "string"
        }
      ],
      "name": "auctions",
      "outputs": [
        {
          "internalType": "string",
          "name": "adId",
          "type": "string"
        },
        {
          "internalType": "address",
          "name": "auctioneer",
          "type": "address"
        },
        {
          "internalType": "uint256",
          "name": "minBid",
          "type": "uint256"
        },
        {
          "internalType": "uint256",
          "name": "highestBidAmount",
          "type": "uint256"
        },
        {
          "internalType": "address",
          "name": "highestBidder",
          "type": "address"
        },
        {
          "internalType": "bool",
          "name": "ended",
          "type": "bool"
        },
        {
          "internalType": "uint256",
          "name": "endTime",
          "type": "uint256"
        }
      ],
      "stateMutability": "view",
      "type": "function"
    },
    {
      "inputs": [
        {
          "internalType": "string",
          "name": "_adId",
          "type": "string"
        },
        {
          "internalType": "uint256",
          "name": "_minBid",
          "type": "uint256"
        },
        {
          "internalType": "uint256",
          "name": "_duration",
          "type": "uint256"
        }
      ],
      "name": "createAuction",
      "outputs": [],
      "stateMutability": "nonpayable",
      "type": "function"
    },
    {
      "inputs": [
        {
          "internalType": "string",
          "name": "_adId",
          "type": "string"
        }
      ],
      "name": "endAuction",
      "outputs": [],
      "stateMutability": "nonpayable",
      "type": "function"
    },
    {
      "inputs": [],
      "name": "owner",
      "outputs": [
        {
          "internalType": "address",
          "name": "",
          "type": "address"
        }
      ],
      "stateMutability": "view",
      "type": "function"
    },
    {
      "inputs": [
        {
          "internalType": "string",
          "name": "_adId",
          "type": "string"
        }
      ],
      "name": "placeBid",
      "outputs": [],
      "stateMutability": "payable",
      "type": "function"
    },
    {
      "inputs": [],
      "name": "renounceOwnership",
      "outputs": [],
      "stateMutability": "nonpayable",
      "type": "function"
    },
    {
      "inputs": [
        {
          "internalType": "address",
          "name": "newOwner",
          "type": "address"
        }
      ],
      "name": "transferOwnership",
      "outputs": [],
      "stateMutability": "nonpayable",
      "type": "function"
    }
  ],
  "bytecode": "0x60806040523480156200001157600080fd5b5033600073ffffffffffffffffffffffffffffffffffffffff168173ffffffffffffffffffffffffffffffffffffffff1603620000885760006040517f1e4fbdf70000000000000000000000000000000000000000000000000000000081526004016200007f9190620001b0565b60405180910390fd5b6200009981620000a760201b60201c565b5060018081905550620001cd565b60008060009054906101000a900473ffffffffffffffffffffffffffffffffffffffff169050816000806101000a81548173ffffffffffffffffffffffffffffffffffffffff021916908373ffffffffffffffffffffffffffffffffffffffff1602179055508173ffffffffffffffffffffffffffffffffffffffff168173ffffffffffffffffffffffffffffffffffffffff167f8be0079c531659141344cd1fd0a4f28419497f9722a3daafe3b4186f6b6457e060405160405180910390a35050565b600073ffffffffffffffffffffffffffffffffffffffff82169050919050565b600062000198826200016b565b9050919050565b620001aa816200018b565b82525050565b6000602082019050620001c760008301846200019f565b92915050565b611aab80620001dd6000396000f3fe6080604052600436106100705760003560e01c8063b76b16181161004e578063b76b1618146100e0578063ce2ba9bf14610123578063e967e60c1461014c578063f2fde38b1461016857610070565b80632dbddb4114610075578063715018a61461009e5780638da5cb5b146100b5575b600080fd5b34801561008157600080fd5b5061009c60048036038101906100979190610f6d565b610191565b005b3480156100aa57600080fd5b506100b36103a5565b005b3480156100c157600080fd5b506100ca6103b9565b6040516100d7919061101d565b60405180910390f35b3480156100ec57600080fd5b5061010760048036038101906101029190611038565b6103e2565b60405161011a979695949392919061112a565b60405180910390f35b34801561012f57600080fd5b5061014a60048036038101906101459190611038565b61050f565b005b61016660048036038101906101619190611038565b610801565b005b34801561017457600080fd5b5061018f600480360381019061018a91906111cc565b610bb5565b005b600073ffffffffffffffffffffffffffffffffffffffff166002846040516101b99190611235565b908152602001604051809103902060010160009054906101000a900473ffffffffffffffffffffffffffffffffffffffff1673ffffffffffffffffffffffffffffffffffffffff1614610241576040517f08c379a0000000000000000000000000000000000000000000000000000000008152600401610238906112be565b60405180910390fd5b60008111610284576040517f08c379a000000000000000000000000000000000000000000000000000000000815260040161027b9061132a565b60405180910390fd5b60006002846040516102969190611235565b90815260200160405180910390209050838160000190816102b79190611556565b50338160010160006101000a81548173ffffffffffffffffffffffffffffffffffffffff021916908373ffffffffffffffffffffffffffffffffffffffff16021790555082816002018190555081426103109190611657565b816005018190555060008160040160146101000a81548160ff0219169083151502179055503373ffffffffffffffffffffffffffffffffffffffff168460405161035a9190611235565b60405180910390207f60140b875a937ebf543a6a4e270352e2ee0ce22054a63e61633f4585a72bdf6985846005015460405161039792919061168b565b60405180910390a350505050565b6103ad610c3b565b6103b76000610cc2565b565b60008060009054906101000a900473ffffffffffffffffffffffffffffffffffffffff16905090565b60028180516020810182018051848252602083016020850120818352809550505050505060009150905080600001805461041b90611379565b80601f016020809104026020016040519081016040528092919081815260200182805461044790611379565b80156104945780601f1061046957610100808354040283529160200191610494565b820191906000526020600020905b81548152906001019060200180831161047757829003601f168201915b5050505050908060010160009054906101000a900473ffffffffffffffffffffffffffffffffffffffff16908060020154908060030154908060040160009054906101000a900473ffffffffffffffffffffffffffffffffffffffff16908060040160149054906101000a900460ff16908060050154905087565b610517610d86565b60006002826040516105299190611235565b90815260200160405180910390209050600073ffffffffffffffffffffffffffffffffffffffff168160010160009054906101000a900473ffffffffffffffffffffffffffffffffffffffff1673ffffffffffffffffffffffffffffffffffffffff16036105cc576040517f08c379a00000000000000000000000000000000000000000000000000000000081526004016105c390611700565b60405180910390fd5b8060040160149054906101000a900460ff161561061e576040517f08c379a00000000000000000000000000000000000000000000000000000000081526004016106159061176c565b60405180910390fd5b8060050154421015610665576040517f08c379a000000000000000000000000000000000000000000000000000000000815260040161065c906117d8565b60405180910390fd5b60018160040160146101000a81548160ff02191690831515021790555060008160030154905060008260010160009054906101000a900473ffffffffffffffffffffffffffffffffffffffff169050600082111561076b5760008173ffffffffffffffffffffffffffffffffffffffff16836040516106e390611829565b60006040518083038185875af1925050503d8060008114610720576040519150601f19603f3d011682016040523d82523d6000602084013e610725565b606091505b5050905080610769576040517f08c379a00000000000000000000000000000000000000000000000000000000081526004016107609061188a565b60405180910390fd5b505b8260040160009054906101000a900473ffffffffffffffffffffffffffffffffffffffff1673ffffffffffffffffffffffffffffffffffffffff16846040516107b49190611235565b60405180910390207fa0fb15ce4bc38fa6151bf16630e38863764a7bb541866d083619bc5b6b93ad02846040516107eb91906118aa565b60405180910390a35050506107fe610dcc565b50565b610809610d86565b600060028260405161081b9190611235565b90815260200160405180910390209050600073ffffffffffffffffffffffffffffffffffffffff168160010160009054906101000a900473ffffffffffffffffffffffffffffffffffffffff1673ffffffffffffffffffffffffffffffffffffffff16036108be576040517f08c379a00000000000000000000000000000000000000000000000000000000081526004016108b590611700565b60405180910390fd5b80600501544210610904576040517f08c379a00000000000000000000000000000000000000000000000000000000081526004016108fb90611911565b60405180910390fd5b8060040160149054906101000a900460ff1615610956576040517f08c379a000000000000000000000000000000000000000000000000000000000815260040161094d9061176c565b60405180910390fd5b806002015434101561099d576040517f08c379a00000000000000000000000000000000000000000000000000000000081526004016109949061197d565b60405180910390fd5b806003015434116109e3576040517f08c379a00000000000000000000000000000000000000000000000000000000081526004016109da906119e9565b60405180910390fd5b60008160040160009054906101000a900473ffffffffffffffffffffffffffffffffffffffff169050600082600301549050348360030181905550338360040160006101000a81548173ffffffffffffffffffffffffffffffffffffffff021916908373ffffffffffffffffffffffffffffffffffffffff160217905550600073ffffffffffffffffffffffffffffffffffffffff168273ffffffffffffffffffffffffffffffffffffffff1614610b435760008273ffffffffffffffffffffffffffffffffffffffff1682604051610abb90611829565b60006040518083038185875af1925050503d8060008114610af8576040519150601f19603f3d011682016040523d82523d6000602084013e610afd565b606091505b5050905080610b41576040517f08c379a0000000000000000000000000000000000000000000000000000000008152600401610b3890611a55565b60405180910390fd5b505b3373ffffffffffffffffffffffffffffffffffffffff1684604051610b689190611235565b60405180910390207f027aaa4de8a8577ab88766593b19e891945e65f7d03ad3551436d3db7feed23334604051610b9f91906118aa565b60405180910390a3505050610bb2610dcc565b50565b610bbd610c3b565b600073ffffffffffffffffffffffffffffffffffffffff168173ffffffffffffffffffffffffffffffffffffffff1603610c2f5760006040517f1e4fbdf7000000000000000000000000000000000000000000000000000000008152600401610c26919061101d565b60405180910390fd5b610c3881610cc2565b50565b610c43610dd5565b73ffffffffffffffffffffffffffffffffffffffff16610c616103b9565b73ffffffffffffffffffffffffffffffffffffffff1614610cc057610c84610dd5565b6040517f118cdaa7000000000000000000000000000000000000000000000000000000008152600401610cb7919061101d565b60405180910390fd5b565b60008060009054906101000a900473ffffffffffffffffffffffffffffffffffffffff169050816000806101000a81548173ffffffffffffffffffffffffffffffffffffffff021916908373ffffffffffffffffffffffffffffffffffffffff1602179055508173ffffffffffffffffffffffffffffffffffffffff168173ffffffffffffffffffffffffffffffffffffffff167f8be0079c531659141344cd1fd0a4f28419497f9722a3daafe3b4186f6b6457e060405160405180910390a35050565b600260015403610dc2576040517f3ee5aeb500000000000000000000000000000000000000000000000000000000815260040160405180910390fd5b6002600181905550565b60018081905550565b600033905090565b6000604051905090565b600080fd5b600080fd5b600080fd5b600080fd5b6000601f19601f8301169050919050565b7f4e487b7100000000000000000000000000000000000000000000000000000000600052604160045260246000fd5b610e4482610dfb565b810181811067ffffffffffffffff82111715610e6357610e62610e0c565b5b80604052505050565b6000610e76610ddd565b9050610e828282610e3b565b919050565b600067ffffffffffffffff821115610ea257610ea1610e0c565b5b610eab82610dfb565b9050602081019050919050565b82818337600083830152505050565b6000610eda610ed584610e87565b610e6c565b905082815260208101848484011115610ef657610ef5610df6565b5b610f01848285610eb8565b509392505050565b600082601f830112610f1e57610f1d610df1565b5b8135610f2e848260208601610ec7565b91505092915050565b6000819050919050565b610f4a81610f37565b8114610f5557600080fd5b50565b600081359050610f6781610f41565b92915050565b600080600060608486031215610f8657610f85610de7565b5b600084013567ffffffffffffffff811115610fa457610fa3610dec565b5b610fb086828701610f09565b9350506020610fc186828701610f58565b9250506040610fd286828701610f58565b9150509250925092565b600073ffffffffffffffffffffffffffffffffffffffff82169050919050565b600061100782610fdc565b9050919050565b61101781610ffc565b82525050565b6000602082019050611032600083018461100e565b92915050565b60006020828403121561104e5761104d610de7565b5b600082013567ffffffffffffffff81111561106c5761106b610dec565b5b61107884828501610f09565b91505092915050565b600081519050919050565b600082825260208201905092915050565b60005b838110156110bb5780820151818401526020810190506110a0565b60008484015250505050565b60006110d282611081565b6110dc818561108c565b93506110ec81856020860161109d565b6110f581610dfb565b840191505092915050565b61110981610f37565b82525050565b60008115159050919050565b6111248161110f565b82525050565b600060e0820190508181036000830152611144818a6110c7565b9050611153602083018961100e565b6111606040830188611100565b61116d6060830187611100565b61117a608083018661100e565b61118760a083018561111b565b61119460c0830184611100565b98975050505050505050565b6111a981610ffc565b81146111b457600080fd5b50565b6000813590506111c6816111a0565b92915050565b6000602082840312156111e2576111e1610de7565b5b60006111f0848285016111b7565b91505092915050565b600081905092915050565b600061120f82611081565b61121981856111f9565b935061122981856020860161109d565b80840191505092915050565b60006112418284611204565b915081905092915050565b7f41756374696f6e20616c72656164792065786973747320666f7220746869732060008201527f4944000000000000000000000000000000000000000000000000000000000000602082015250565b60006112a860228361108c565b91506112b38261124c565b604082019050919050565b600060208201905081810360008301526112d78161129b565b9050919050565b7f4475726174696f6e206d75737420626520706f73697469766500000000000000600082015250565b600061131460198361108c565b915061131f826112de565b602082019050919050565b6000602082019050818103600083015261134381611307565b9050919050565b7f4e487b7100000000000000000000000000000000000000000000000000000000600052602260045260246000fd5b6000600282049050600182168061139157607f821691505b6020821081036113a4576113a361134a565b5b50919050565b60008190508160005260206000209050919050565b60006020601f8301049050919050565b600082821b905092915050565b60006008830261140c7fffffffffffffffffffffffffffffffffffffffffffffffffffffffffffffffff826113cf565b61141686836113cf565b95508019841693508086168417925050509392505050565b6000819050919050565b600061145361144e61144984610f37565b61142e565b610f37565b9050919050565b6000819050919050565b61146d83611438565b6114816114798261145a565b8484546113dc565b825550505050565b600090565b611496611489565b6114a1818484611464565b505050565b5b818110156114c5576114ba60008261148e565b6001810190506114a7565b5050565b601f82111561150a576114db816113aa565b6114e4846113bf565b810160208510156114f3578190505b6115076114ff856113bf565b8301826114a6565b50505b505050565b600082821c905092915050565b600061152d6000198460080261150f565b1980831691505092915050565b6000611546838361151c565b9150826002028217905092915050565b61155f82611081565b67ffffffffffffffff81111561157857611577610e0c565b5b6115828254611379565b61158d8282856114c9565b600060209050601f8311600181146115c057600084156115ae578287015190505b6115b8858261153a565b865550611620565b601f1984166115ce866113aa565b60005b828110156115f6578489015182556001820191506020850194506020810190506115d1565b86831015611613578489015161160f601f89168261151c565b8355505b6001600288020188555050505b505050505050565b7f4e487b7100000000000000000000000000000000000000000000000000000000600052601160045260246000fd5b600061166282610f37565b915061166d83610f37565b925082820190508082111561168557611684611628565b5b92915050565b60006040820190506116a06000830185611100565b6116ad6020830184611100565b9392505050565b7f41756374696f6e20646f6573206e6f7420657869737400000000000000000000600082015250565b60006116ea60168361108c565b91506116f5826116b4565b602082019050919050565b60006020820190508181036000830152611719816116dd565b9050919050565b7f41756374696f6e20616c726561647920656e6465640000000000000000000000600082015250565b600061175660158361108c565b915061176182611720565b602082019050919050565b6000602082019050818103600083015261178581611749565b9050919050565b7f41756374696f6e206e6f742079657420656e6465640000000000000000000000600082015250565b60006117c260158361108c565b91506117cd8261178c565b602082019050919050565b600060208201905081810360008301526117f1816117b5565b9050919050565b600081905092915050565b50565b60006118136000836117f8565b915061181e82611803565b600082019050919050565b600061183482611806565b9150819050919050565b7f5061796f7574206661696c656400000000000000000000000000000000000000600082015250565b6000611874600d8361108c565b915061187f8261183e565b602082019050919050565b600060208201905081810360008301526118a381611867565b9050919050565b60006020820190506118bf6000830184611100565b92915050565b7f41756374696f6e20657870697265640000000000000000000000000000000000600082015250565b60006118fb600f8361108c565b9150611906826118c5565b602082019050919050565b6000602082019050818103600083015261192a816118ee565b9050919050565b7f4269642062656c6f77206d696e696d756d000000000000000000000000000000600082015250565b600061196760118361108c565b915061197282611931565b602082019050919050565b600060208201905081810360008301526119968161195a565b9050919050565b7f426964206e6f74206869676820656e6f75676800000000000000000000000000600082015250565b60006119d360138361108c565b91506119de8261199d565b602082019050919050565b60006020820190508181036000830152611a02816119c6565b9050919050565b7f526566756e64206661696c656400000000000000000000000000000000000000600082015250565b6000611a3f600d8361108c565b9150611a4a82611a09565b602082019050919050565b60006020820190508181036000830152611a6e81611a32565b905091905056fea2646970667358221220bbdaaecc7f5caf52721c3f90c63f3e462622c91f1d99244f63cb983fd4dd410964736f6c63430008140033",
  "linkReferences": {},
  "deployedLinkReferences": {}
}